:040000006F20C07C31
:100004000000000000000000900000206A060020AC
:10001400A9BDF9F5900000200000000000000000D8
:10002400900000209000002000000000000000006C
:10003400900000200000000090000020000000005C
:1000440090000020E20A0020000B00209000002015
:1000540090000020900000205A070020900000200B
:1000640090000020900000209000002090000020CC
:10007400C40A00209000002090000020900000207E
:1000840090000020900000209000002090000020AC
:1000940001A04111814601468145114506C6EF0084
:1000A4003032B727004011472383E780B7F700E0D9
:1000B400938707D0984B6D9B98CB984B5D9B98CBBF
:1000C4007300501001000100B240410182804111CF
:1000D400814601468145114506C6EF00702EB727BB
:1000E400004011472383E780B717004003C7E702A6
:1000F40003C6E70483D6870391671377F70F136664
:10010400360063E5F600719B13671700F326008041
:10011400A18A938781D081CAF326008094C3944333
:10012400DD9A7390068001000100B7160040930524
:1001340070052380B604930580FA2380B604010079
:1001440001002382060223800604F32500809443E1
:10015400A18ACD8E7390068023A401D001000100F2
:10016400F3260080A18A81CAF326008094C39443B5
:10017400DD9A7390068001000100B71600409305D4
:1001840070052380B604930580FA2380B604010029
:1001940001002387E6022387C60423800604F3268E
:1001A40000809843218B558F7310078023A401D0BE
:1001B4000100010073270080218B01CB732700808D
:1001C40098C398435D9B73100780010001003717A3
:1001D4000040930670052300D704930680FA230099
:1001E400D704010001008346B70493E60602A30581
:1001F400D70423000704F32600809843218B558FEE
:100204007310078023A401D00100010037F700E038
:10021400130707D0144B93E6460014CB144BDD9A16
:1002240014CB730050100100010073270080218B50
:1002340001CB7327008098C398435D9B731007809C
:100244000100010037170040930670052300D7040E
:10025400930680FA2300D704010001008346B70403
:1002640093F6F60DA305D704230007047327008033
:100274009C43A18BD98F7390078023A401D00100E4
:100284000100B2404101828073270080218B938753
:1002940081D001CB7327008098C398435D9B731072
:1002A4000780010001003717004093067005230002
:1002B400D704930680FA2300D70401000100834683
:1002C400B70493F6F60DA305D70423000704732699
:1002D40000809443A18AD18E7390068023A401D018
:1002E4000100010093760502638006180347A70006
:1002F400118B3DE373270080218B01CB7327008092
:1003040098C398435D9B7310078001000100371761
:100314000040930670052300D704930680FA230057
:10032400D704010001008346A70093E64600230595
:10033400D70023000704F32600809843218B558FB0
:100344007310078023A401D0010001001307004BA0
:10035400010001007D176DFF73270080218B01CB05
:100364007327008098C398435D9B73100780010036
:10037400010037170040930670052300D704930645
:1003840080FA2300D704010001007D892314A7000B
:10039400010001000100010023000704F32600808E
:1003A4009843218B558F7310078023A401D001003B
:1003B400010073270080218B01CB7327008098C331
:1003C40098435D9B731007800100010037170040BC
:1003D400930670052300D704930680FA2300D704FC
:1003E4000100010001000100B726004013061005BA
:1003F400A383C68023000704F32600809843218B3F
:10040400558F7310078023A401D0010001007327C6
:100414000080218B01CB7327008098C398435D9B98
:100424007310078001000100371700409306700520
:100434002300D704930680FA2300D70401000100A7
:100444008346B70493E60608A305D70423000704EC
:10045400732700809C43A18BD98F7390078023A4BA
:1004640001D001000100828093760504638706149D
:100474000347A700418B3DE373270080218B01CB09
:100484007327008098C398435D9B73100780010015
:10049400010037170040930670052300D704930624
:1004A40080FA2300D704010001008346A70093E6E5
:1004B40006012305D70023000704F3260080984390
:1004C400218B558F7310078023A401D001000100F4
:1004D4001307007D010001007D176DFF7327008065
:1004E400218B01CB7327008098C398435D9B7310C5
:1004F40007800100010037170040930670052300B0
:10050400D704930680FA2300D704010001009376F0
:10051400F50193E606042314D7000100010001004D
:10052400010023000704F32600809843218B558F94
:100534007310078023A401D0010001001307600495
:10054400631FE50273270080218B01CB7327008092
:1005540098C398435D9B731007800100010037170F
:100564000040930670052300D704930680FA230005
:10057400D70401000100B7260040094695BD732742
:100584000080218B01CB7327008098C398435D9B27
:1005940073100780010001003717004093067005AF
:1005A4002300D704930680FA2300D7040100010036
:1005B400B72600401306200525BD73270080218B34
:1005C40001CB7327008098C398435D9B7310078009
:1005D4000100010037170040930670052300D7047B
:1005E400930680FA2300D704010001008356870094
:1005F40093E6060C2314D700F5BB4111814601464E
:100604008145114506C66D2BF3270080A18B138706
:1006140081D081CBF32700801CC31C43DD9B7390E6
:10062400078001000100B71700409306700523807E
:10063400D704930680FA2380D7040100010083C6FF
:10064400670493E616002383D70423800704F32664
:1006540000801C43A18BD58F7390078023A401D005
:1006640001000100B240410182808146014681457A
:100674001145B92373270080218B938781D001CB47
:100684007327008098C398435D9B73100780010013
:10069400010037170040930670052300D704930622
:1006A40080FA2300D70401000100FD562316D70267
:1006B40023000704F32600809843218B558F731081
:1006C400078023A401D00100010073270080218B3F
:1006D40001CB7327008098C398435D9B73100780F8
:1006E4000100010037170040930670052300D7046A
:1006F400930680FA2300D7040100010083466704AF
:1007040093E616002303D70423000704732700800D
:100714009C43A18BD98F7390078023A401D001003F
:10072400010001A0BD473305F50201007D1575FDEB
:100734008280411122C426C206C6AA8401446317DA
:100744009400B2402244924441018280050413057E
:10075400803E4204C13F4180DDB77971A3070100A7
:1007640022D626D44AD24ED052CE37840040834774
:10077400640093F7F70FA307F1008347F100898B17
:100784006381072E834774001307000393F707035D
:10079400638EE7068344740083477400BD8893F72F
:1007A40007036389071C13070002639CE70413898A
:1007B4008101639804108347490F9D83F1C78347E0
:1007C400240293C707042301F4028347240293F706
:1007D400C70F93E727002301F40203274901834548
:1007E40049008327890163FAE5080D8FBE95232A02
:1007F400E900232CB90013050008978000E0E78086
:1008040020D2B787004009472383E700378400409C
:1008140083477400E207E18763D90728930720FC24
:100824002301F4029384810183A5040821461385DE
:10083400C110973000E0E780800D8387440F63CABE
:100844000700230004028347240293F7C70F230100
:10085400F40237840040834724021385C11093F7C0
:10086400370F93E787002301F402978000E0E780C5
:1008740080BB89472303F4000DACB305F700232C98
:10088400B90023A6010285BF0347590F9547631B8F
:10089400F700034734008347090013770708D98F0B
:1008A400A301F4008347240293F7C70F93E72700BB
:1008B4002301F4028347240293F7370F2301F40240
:1008C40089B791476398F4008347240393C70704C7
:1008D4002309F402154433D4840293070003330438
:1008E400F402939724003E94B7870040938727022D
:1008F4003E948347040093F7C70F93E72700230030
:10090400F400E147B387F402CA97D84B03C6470003
:10091400944F6379E6048C4B118FB296B2958CCBCD
:10092400D8CB94CF88476376E602973000E0E7801F
:1009340000FEE147B387F402CA9703C7570085470F
:10094400630BF7008347040093F7C70F2300F400F9
:100954004DBD3A86D9BF8347040093F7C70F93E789
:100964001700EDB7B305D7008CCF23AA070013E512
:10097400040861B5A9E083472402938481090349EB
:10098400840093C707082301F4028C4088444A86F4
:10099400973000E0E780A0F78C48DC440145CA9515
:1009A400B38727418CC8DCC4978000E0E780C0B8D7
:1009B400E31909E401B78347740093F70704E3825A
:1009C40007E491476398F4008347240393C7070817
:1009D4002309F402E147B387F40213898101378ABA
:1009E400004083498A004E863E99130409080C404E
:1009F4000844973000E0E78080F11C440C4803472A
:100A0400C907CE971CC45C44CE950CC8B387374144
:100A14005CC463E3E90099E72685978000E0E780FA
:100A2400A0B1C5B39547B3D7F402130700038346B7
:100A3400D9078A04130A2A02B387E7020547A6974F
:100A4400D2976389E60003C707001377370F238023
:100A5400E70045BB03C707001377370F1367470049
:100A6400FDB78347F100858B99CFA30104009780DC
:100A740000E0E780E0978347240293F7370F2301D0
:100A8400F4028547C5BB8347F100918B9DC783471B
:100A94005400918B91C7014597B000E0E78080F343
:100AA400B787004011472383E7003254A2541259F8
:100AB4008259724A4561730020308347F10093F7ED
:100AC400F70F4DBBB7170040130700032388E70255
:100AD400854723A2F1DC73002030411106C6492D5D
:100AE400FDBF83C79186858B81C78547238AF1DA49
:100AF40003D7C1D9B7170040239EE70873002030FD
:100B0400730020302303048015472303E48001008D
:100B14002302A480828083076480E3CE07FE23033C
:100B24000480828083076480E3CE07FE034544800B
:100B3400828083076480E3CE07FE2302A480828040
:100B4400411126C44AC24EC006C61377F50BAD4701
:100B5400AA892E8995446306F70019456537653FD0
:100B64008D444E854537FD59FD1463983401B240D8
:100B7400A244124982494101828013550901137527
:100B8400F50F453F2209CDB7011126CC06CEB70497
:100B9400080051371545BD37713769372AC6A53F57
:100BA40032459377150089EB136515001375F50F1E
:100BB400F240E24405618280FD14E9FC0145CDBFA9
:100BC400397126DC4ADA4ED852D656D45AD25ED07F
:100BD40006DE62CE66CCB7E700E07D5783AA070045
:100BE40022C603AA470023A0E71823A2E718B717D1
:100BF4000040130770052380E704130780FA23805D
:100C0400E70483C74704930B75FFB684E20793FB9D
:100C1400FB0F8546AA892E8B328937240040E18751
:100C2400015763FA76016308D50089461307000269
:100C34006313D5000157D98F93F7F70FB71C004002
:100C44002382FC0411472303E4801305F00F5D3D68
:100C5400094CD135636D7C11B7050700DA953787E8
:100C64000700795563F2E504B3879500636EF702D4
:100C7400370B0800A94733EB65016399F90689E44A
:100C84008144513D26850DA0DA850945553D050968
:100C94000345F9FFFD14050B693D81C49377FB0FF0
:100CA400FDF7DD3569FD7D55B71700401307700565
:100CB4002380E704130780FA2380E70403C747046B
:100CC400418B2382E704F250B7E700E023A05711D9
:100CD40023A24711E25432445259C259325AA25AF9
:100CE400125B825B724CE24C21618280A547639562
:100CF400F90685691309F00FB3069900B3742B0143
:100D0400B6941349F9FFB3749900856B337969017B
:100D1400416B9387F9FFB3F7270199E363FC34012F
:100D240093D94900C147E3E637FF99BF0569C16913
:100D34007D19D9B71305800D638869011305000275
:100D44006384790113051008CA85DD3B353D21DD37
:100D54004E99B3843441D9B7DA852D45D533CA9435
:100D6400E30099F205097D3BA30FA9FED5BF938744
:100D7400F9FF93F7F70F6361FC0C83C71C04130797
:100D84003008631FF70437070800636BEB04B307ED
:100D94009B00B706100063F5D704334BEB0089477B
:100DA4006393F9068980D549E38C04ECDA85094517
:100DB400413B11090327C9FF91472320E48003071E
:100DC4006480E34E07FE23033481FD17EDFBFD141D
:100DD400110B81C49377FB0FE9FF7D3371F5E1B506
:100DE400B717004003C75704B70708001377070273
:100DF40019E3B78707007955E378FBEA33079B00CB
:100E0400E3FFE7F855B58547E382F9F2DA852D4526
:100E1400053B9389F4FFE38504E6293393F739000E
:100E240091EB832604800327090093074900E39A82
:100E3400E6E43E89CE84F1BFB5476396F900130515
:100E4400900BC93135BDB1471305B00AE38BF9FEE8
:100E540099476391F904B7050800B365BB002D45B4
:100E6400C53181448D4BA14975396396740183273B
:100E740004802320F9008504E39834FF8327048049
:100E840013172B01635507002312F900D5BB232246
:100E9400F900FDB39D476399F90281451305B00438
:100EA4004531BD442320090023220900FD599D3901
:100EB40093F77400CA9703C70700FD14398D238084
:100EC400A700E39634FF6DBBA1476392F9046D3923
:100ED4008144630D0B008D479304C0036308FB003A
:100EE4009304000563048B01930440041375C50740
:100EF400E30895D819453931393905452131268515
:100F04000D3909453D314931E31C05D669BB91478B
:100F14006399F90013056006F536F53E130590094B
:100F24000DB7E38F09D4F154A9BB19CD91CD09CEE6
:100F340081473387F500834607003307F5008507AB
:100F44002300D700E317F6FE828019C991C909CAA4
:100F5400910583A7C5FF11057D16232EF5FEC5BF98
:100F6400828001C919C62A960505A30FB5FEE31DA3
:100F7400A6FE828081473307F5000307070019E3C3
:100F84003E8582808507C5BF01112E8626CAAA84A4
:100F9400131506019305F004418122CC06CE32C616
:100FA400EF1040592A8401C53246A685BD3F2285EB
:100FB400F2406244D24405618280854715C18DC1E7
:100FC40005C28147B306F5003387F50083C60600E2
:100FD400034707006398E6008507E315F6FE854797
:100FE4003E8582808147EDBF9307F6FFBE952A9622
:100FF4006313C5008280FD1583C715000505A30F83
:10100400F5FEFDB7AA87014581CF09CE3E96850737
:1010140003C7F7FF6317B700E39BC7FE054582804C
:10102400828001458280797197470000938707F495
:1010340022D4804306D626D24AD04ECE52CC56CAAB
:101044005AC85EC662C45DCC37C9C901814B174A10
:101054000000130A2AF697440000938464F11309EC
:10106400F937974A0000938A2AEBB709C0A8370BCF
:1010740040578357240095E35C44639D0B00174756
:1010840000002325F7EE032CC4002285EF10A0579F
:10109400628499A823A6FB00FDB783270A008297E0
:1010A400838664011C4463DB06063307F5406367EB
:1010B400E9089747000023A907E683552400034560
:1010C400040097C000E0E78060D35C405844A9CF97
:1010D4001444B6978386640163C5060063E337014D
:1010E400DA971CC4A28B3A8449F49747000093878B
:1010F400A7E29C4B09476378F706F91717470000E6
:101104002324F7E2B250225492540259F249624A1B
:10111400D24A424BB24B224C45618280E377F5F8C8
:101124003387F9402A9761B763970B00974700000C
:1011340023AEE7E289BF23A6EB00B1B7D85009CFAD
:1011440063DF06003385A74083A70A016376F500B1
:101154009747000023AAA7DCA28B404471B7E3F3AE
:10116400A7FECE97C5B79747000023AF07DA59BF4C
:10117400411122C417440000130404DD1C4006C6B8
:1011840026C24AC091C782979747000023AE07DA68
:101194005C4091C382971C406391071C97470000F1
:1011A40083C717F9858B9DC797470000A38207F86B
:1011B400174700000347F7F7954763FDE700EF0083
:1011C40010379747000083C7D7F6F5178A07A29709
:1011D4009C43829717490000130949F98347C900C2
:1011E400918B99C3EF1060281C4491C38297974454
:1011F4000000938464D79840174600000346D6D174
:101204009747000083C747D193961700BA9683D6B1
:101214000600D5CA9747000083C707D063EFC70A03
:1012240097470000238A07CE1C406398071297470C
:10123400000083C737F091CF9747000083C777EF4B
:1012440089EB97470000A38707EE971002E0E78039
:10125400E047974700009387E7D59C43638F070EC9
:10126400B707C0A8174700002320F7CC6D3B97476A
:1012740000009387E7CFDC53EDC317470000130743
:10128400A7C9184B9747000083C7D7CF6367F70CEC
:10129400174700000347F7E9954763E0E70C8347E6
:1012A400C900918BDDEB90409746000083C6D6C6FB
:1012B40063CBD70A2244B24092440249410117C386
:1012C40000E06700C390850793F7F70F9746000087
:1012D4002384F6C4E3E6C7F235BF86073E978355F9
:1012E40007002310070097470000239D07C6974770
:1012F4000000938727C59C43174500000345C5C1DB
:1013040013172500BA979C4382979747000083D709
:1013140067C517470000034727C093C7F7FF7D8DB4
:101324009317170098403E97835707005D8D23104D
:10133400A7009747000083C727BE91C785071747B3
:101344000000230BF7BC174700000347E7BC97478F
:10135400000083C777BCE375F7ECB24022449244A3
:1013640002494101828013971700329703570700FF
:101374006DF7850735BFAD6737C70040BD07232626
:10138400F7200F100000974700009387E7B8C84F75
:1013940083278726BD66BD0693C7F7FF99836A0531
:1013A4002326D7205D8D82804111B7170040985FB6
:1013B4003AC6945F3247E39CE6FE3245410182809F
:1013C40082800327851163000712411122C406C6D7
:1013D4008347C5008345C5042A8493F7C70F2306B2
:1013E400F500834697000356C7001395860161856F
:1013F40063F1C508635A05060345870093F6F607AB
:10140400A304D700054693E627006314C50093E6BA
:1014140017002306D4005C4389075CC3A30AB40005
:10142400032504112E864C430905013683278411B4
:1014340003465401D44303D7C700B296118FD4C3D3
:101444002396E7008947A30DF40003474403974715
:10145400000083C707B36378F7048347C40093E7A6
:1014640007012306F40081A093E717002306F40084
:1014740075B79376F60F635D0502034587008545CE
:1014840013E627006314B50013E617002306C4000F
:10149400A30AD400A30407008547A30DF4008327FF
:1014A40084119C43DDF3B240224401454101828012
:1014B40093E717002306F400A30AD400A30407004B
:1014C400032504114C4309058D34832784110346F5
:1014D4005401D44303D7C700B296118FD4C32396C3
:1014E400E7008D475DBF05458280974700009387DD
:1014F40067C29C43411122C406C6858B2A84C5EF6A
:101504004165130525F597B001E0E780802F45C5B7
:101514008347A5002315F50083270412BDE7232084
:10152400A4122322A41285472310F40423200500C7
:101534008347640154412316F5000347D400230470
:10154400E5000547A304E50017470000130707BE9D
:10155400184F1385170215811C437D151375F50F5C
:101564009CC25C43DCC21C479CC65C47DCC61C4B6B
:101574009CCA5C4BDCCA1C4F9CCE5C4FDCCE19CDA4
:101584009386060213070702C1BF8327441288C348
:10159400835704042322A412850779B797470000D0
:1015A40083D747C6850717470000231DF7C4B240F9
:1015B4002244410182808347C40023090400054575
:1015C40093C747002306F400DDB78347850193F7EB
:1015D400E70FD5EF83479501DDEB034625018346ED
:1015E400C50009CA83454503174700000347779997
:1015F40063E7E50013F7060141CF014709C6C18A35
:101604000357651C81C68356A51C369751C313071F
:10161400C712174500000355A592B335A7023746F4
:101624000F00411113060624814622C426C206C6B1
:101634007D543305A70297C002E0E78060329747E4
:10164400000083C77794B384A7009747000093876B
:10165400E7BA03A707098327070963F387003E84D2
:10166400184375FB974700009387C7949C43829760
:1016740081476364A400B307A440B2402244B3B7D3
:10168400970093C7170092443E85410182808147A9
:101694003E858280797126D206D622D44AD04ECE97
:1016A40052CC56CA5AC85EC68347350303447513E1
:1016B400AA843E941374F40F9307400263F68700E0
:1016C4001304B4FD1374F40F03AA841383AAC4137C
:1016D400A38B841222865285D68597C002E0E780C8
:1016E4006023058915E503CBD41201498149337B75
:1016F4006403930B50024A865285D68597C002E054
:10170400E7804021058915C5639169031374F90FB6
:10171400238B8412B250225492540259F249624AE1
:10172400D24A424BB24B456182808509E20993D982
:1017340089410509E31179FDE1BF83278509035632
:10174400E503797193D60701BD8EC206C182358E39
:101754001357764093575640898B058B5D8F93576B
:101764003640918B5D8F93571640A18B5D8F9317F5
:101774001600C18B5D8F9317360093F707025D8FB8
:10178400931756009355860093F707041E065D8F42
:101794001376F60F518F93D7554013D63540118ADF
:1017A400898BD18F13D67540D18F13D61540218ADA
:1017B400D18F13961500418AD18F13963500137675
:1017C4000602D18F13965500137606049E05D18F19
:1017D40093F5F50FCD8FA20745465D8F3307C702FA
:1017E40022D42A8426D252CC56CA032A8413832AAA
:1017F400C4135AC806D63697420741839357774095
:10180400135557400989858BC98F13553740118962
:10181400C98F135517402189C98F131517004189A2
:10182400C98F1315370013750502C98F1315570097
:1018340093558700137505041E07C98F1377F70F97
:10184400D98F13D5354013D755401189098B498F4A
:1018540013D57540498F13D515402189498F1395A8
:1018640015004189498F1395350013750502498F79
:1018740013955500137505049E05498F93F5F50FCF
:101884004D8F2207D98FB387C7024AD04ECE5EC68A
:1018940062C4B697C207C18313D7774013D55740A4
:1018A4000989058B498F13D537401189498F13D581
:1018B40017402189498F139517004189498F139542
:1018C400370013750502498F1395570093D5870088
:1018D400137505049E07498F93F7F70FD98F13D516
:1018E400354013D755401189098B498F13D575405D
:1018F400498F13D515402189498F139515004189C6
:10190400498F1395350013750502498F13955500BA
:10191400137505049E05498F93F5F50F4D8F220726
:10192400D98FB387C702130650025285D685B6975E
:10193400BD8E93940601C18033F6C402137BF60F67
:1019440097C002E0E78000FD05890DED8347D412BE
:1019540001498149B3849702130C5002C1804A861D
:101964005285D68597C002E0E780C0FA0589937B4B
:10197400F90F11C563863403850993F9F90F050935
:10198400E31F89FD230B6413B2502254925402596D
:10199400F249624AD24A424BB24B224C45618280A0
:1019A4005E8BCDB70111974700009387278522CC22
:1019B40003A4470B26CA06CE2AC42EC6854419E4BE
:1019C4000145F2406244D24405618280834791001C
:1019D40003471400858B6304F7000044CDB7194610
:1019E4009305A10013052400EFF02FDDE31795FE06
:1019F4000545C1BF011122CC173400001304C4747F
:101A040018402AC62EC432C206CE3C4B93F7F7F7D1
:101A14003CCB971002E0E78020C8184097360000BE
:101A24009386C66F3C4B93E707083CCB9C423245F8
:101A3400A24523A0070003471500034825002207F9
:101A4400420842970348050042970348350062085C
:101A5400429798D703475500034865002207420878
:101A6400429703484500429703487500620842972D
:101A7400D8D7034795000348A50022074208429798
:101A84000348850042970348B5006208429798DBF3
:101A94000347D5000348E50022074208429703485C
:101AA400C5000345F500429762052A97D8DB03C7B2
:101AB400150003C52500220742052A9703C5050022
:101AC4002A9703C5350062052A9798CF03C75500A6
:101AD40003C56500220742052A9703C545002A97D6
:101AE40003C5750062052A97D8CF03C7950003C5BF
:101AF400A500220742052A9703C585002A9703C536
:101B0400B50062052A9798D303C7D50003C5E5003D
:101B1400220742052A9703C5C50083C5F5002A9705
:101B2400E2052E97D8D3D843759BD8C3D8431367FF
:101B34001700D8C398431367170098C312469842F6
:101B44005C43858BD1E71C4F01452300F6009C4282
:101B54009C4FA183A300F6009C429C4FC1832301A8
:101B6400F6009C429C4FE183A301F6009C42D84FAF
:101B74002302E600D84F2183A302E600D84F418315
:101B84002303E600D84F6183A303E600985323049C
:101B9400E60098532183A304E60098534183230568
:101BA400E60098536183A305E600D8532306E600B4
:101BB400D8532183A306E600D85341832307E600C4
:101BC400DC53E183A307F600F2406244056182809E
:101BD4000100B5B7173700001307875414434111A8
:101BE40022C49C5E4AC006C6998326C2858B3A8469
:101BF4001739000013098952D1CB9C5E9734000039
:101C04009384C45293F7F7F99CDE17370000034717
:101C1400475293070008631BF700832709009C437E
:101C240093F70704173700002305F75083C7040010
:101C340093F707049DC3973700009387A7379C4306
:101C440082979737000023ABA74E83C7040093F70E
:101C5400F70B17370000230BF74C83C7440093F7A7
:101C640007048DE7854717370000A303F74C973720
:101C740000009387674D9C43096798C7130700FCCE
:101C8400973600002386E64AD844F8D31C40985F70
:101C94001183058B09CB985F3D9B98DF05479736E9
:101CA40000002387E648985F1D83058B11CB985F5E
:101CB4001377F7F798DF854717370000230AF746AD
:101CC40083270900D8430583058B19C7D843759B1F
:101CD400D8C3D843799BD8C3B24022449244024922
:101CE40041018280397106DE16DC1ADA1ED82AD642
:101CF4002ED432D236D03ACE3ECC42CA46C872C670
:101D040076C47AC27EC0F935F250E2525253C253BD
:101D14003255A255125682567247E2475248C2487B
:101D2400324EA24E124F824F2161730020309737FA
:101D34000000938767419443973700009387073FD8
:101D440003C70700058B11CB973700002382073E9A
:101D540097370000A38E073C828003C71700058BCA
:101D640065F7F85271FF83C75700DDB717380000D5
:101D74001308083B032708001C5F9583858BD1E774
:101D840009C61C5BBD832300F60085CA83270800AF
:101D9400985B4607935767016356070093E707C0AC
:101DA400C207C18303970600C207C18709C7BA9750
:101DB4000947B3C7E7022390F60085CD8347150092
:101DC4008DCB9736000083C6C63693F60604138778
:101DD400970089478DCA3A95034705008546994778
:101DE4001376F7066311D60262076187B947634C1D
:101DF4000700832708009C5FED838D8B1737000055
:101E0400A30BF73281473E8582808547EDBF4111A0
:101E140022C406C61734000013040433184049E9E9
:101E2400AE877453FDFE3E85B2859737000023804C
:101E34000730970002E0E780205C97370000938723
:101E4400272E9C43B70680009843558F98C3D857D4
:101E5400719BD8D797370000A38C072C97370000C5
:101E6400A386072C1C40094798C3B7F700E003A7D3
:101E740007D16D9B23A8E7D003A707D15D9B23A8B7
:101E8400E7D0730050101440173700001307072AD7
:101E940083472700858B89EB83473700858BD9C718
:101EA4009737000023860728B240224441018280EC
:101EB4008D476310F50297370000938767269C438C
:101EC400B70680009843558F98C3D857719BD8D7CD
:101ED4005DBF8547E319F5FAB567BD075CC70F1009
:101EE40000001C400967094698C7130700F8973695
:101EF4000000238FE62217370000130767221443DC
:101F0400984231830D8B6319C7001307E043F8D35C
:101F14003D673D07D8C785BF984231830D8B01E7E4
:101F240013076019EDB71307E01BD5B7FC52ADF3E7
:101F3400A5BF5D7152DC173A0000130A6A1E03271D
:101F44000A0086C6A2C4A6C2CAC04EDE1C43973984
:101F5400000093892924173900001309E91E93F717
:101F6400F7E793E707081CC383A609003707CEFFEA
:101F74007D179C46130680022A84F98F9CC683270A
:101F84000900130700082800B8CBAE849305100895
:101F9400EFE03FFD970002E0E7800070970002E069
:101FA400E780207D83270A009376F41F370FFCFF18
:101FB40023A40700984B4E88CA881367F70398CB6D
:101FC400F84F130510F8D285137707E0558FF8CF33
:101FD4009843F576FD16758F98C39843B70633007A
:101FE400B70204001377F7E798C398439303401F9D
:101FF4007D1F1377F7E71367071098C303A709003A
:10200400930F800285491C47D58F1CC7832709007D
:102014001307900D3400B8CB11490147135337000F
:1020240026938347030013767700B3D7C740858B85
:10203400DDCF9C41832E0800239C070423900706D0
:1020440003AECE02137EDEFF23A6CE0383AE0700CB
:10205400137EF70793FE0EF833EECE0123A0C701DB
:1020640003AE4702336E5E0023A2C70383AE0800AB
:10207400014E23A27E0603DA070663074E0303AE6E
:102084000703038A0600135EFE00620E135E8E4190
:102094006358CA0103AE0703135EFE002380C60122
:1020A40003DE0706137EFE0F03AA4E0663060A002C
:1020B40003DA8705E37F49FB03AE4702337EEE0173
:1020C40023A2C70383870600635CF400034E030066
:1020D4003396C9001346F6FF3376C6012300C300C6
:1020E4003E8663D3A7002A861315860161850507FA
:1020F4001377F70F8506E313F7F3B64026449644A7
:102104000649F259625A61618280973600009386CB
:10211400A6039C42D8471316170163550602984735
:1021240013161701635006027D57B8D717370000FE
:10213400130787DE584F050717360000232CE6DE09
:10214400116798C798470D83058B1DC31737000087
:102154000347E7FD13671700173600002309E6FC61
:10216400130700F8173600002304E6FC214798C73C
:102174009847058B09CF17370000034737FB1367D0
:10218400170017360000A303E6FA054798C79847D7
:102194000983058B09E798470583058B31CF984759
:1021A40017360000130686F817350000130545F7A7
:1021B4000983058B630307101841184331830D8B82
:1021C40075EBAC4B184E93F5050203471700CDCDC4
:1021D40079EF13077006D8CF03470600136717007B
:1021E400173600002304E6F4114798C718415C57DA
:1021F400F19B93E717005CD79C42984793163701ED
:1022040063D606029736000083C68606C18A17374E
:1022140000001307A7FEC5CE03474707136707024D
:10222400973600002386E604056798C798479316F7
:10223400270163D1060217370000034767EF6207DF
:102244006187635707000547973600002382E6EE4F
:10225400096798C798479316070163D6060297360D
:10226400000083C6F600858A17370000130707F9B4
:10227400ADCE034757071367270097360000A3899D
:10228400E6FE216798C7828029D785456315B70084
:102294001307B00689B789456315B7001307F0061D
:1022A4001DBF8D456315B700130730072DB71307FE
:1022B400500715B71307600739BF03473600136784
:1022C400170017360000A304E6E6094739BF834622
:1022D40047070946BD8A6388C600034747078D46FA
:1022E4003D8BE313D7F4114725BF83465707918AE3
:1022F400C9DA034757071367870041B7397106DE08
:1023040016DC1ADA1ED82AD62ED432D236D03ACED9
:102314003ECC42CA46C872C676C47AC27EC0F53381
:10232400F250E2525253C2533255A25512568256BB
:102334007247E2475248C248324EA24E124F824F71
:1023440021617300203017370000130727E083460C
:10235400B7019737000083C737E24C4BB697FD8B24
:1023640033D7F50097360000A382F6DE97360000D7
:10237400A384F6E0058B15EF17370000034717E039
:10238400B3F7E702814601471305000233D6E5009F
:10239400058A1378F70F19CA6397D7009737000097
:1023A400A38607DB8280850693F6F60F0507E31FF5
:1023B400A7FC8280973700009387C7BF9C43011115
:1023C40022CC4EC606CE26CA4AC852C456C28297EA
:1023D40097370000938787D9804781496305A4060E
:1023E400BE84973700009387A7B8038767013E89A7
:1023F40063550706018D135455009737000083C7B2
:1024040087D69379F501636DF402370AC0A8B70A39
:102414004057153F9C449736000083C6C6D4139793
:1024240056003E9783076901158C63C507006363F3
:10243400470156979737000023AEE7D2E37BD4FCDD
:102444001604B3693401F24062444E85D2444249D1
:10245400B249224A924A05618280E37D85F8B70732
:10246400C0A833848740229579B7973700009387B3
:1024740067B49C43411122C406C626C2829797378B
:1024840000009387A7CE80476309A406BE849737CC
:1024940000009387E7AD8387670163D80704018D44
:1024A400135455009737000083C7E7CB6367F404E0
:1024B400593D98449737000083C7E7CA939657005D
:1024C40036971D8C9736000023A6E6CAE372F4FE05
:1024D4002244B240924417350000034535C7814574
:1024E4004101170302E067006370E37A85FAB707D6
:1024F400C0A833848740229565B7B24022449244F1
:1025040041018280973700009387C7C89843B75723
:1025140002009387079F8326070913965600635882
:102524000600832607091396660063440600FD1718
:10253400FDF3828071C5AA870145E9C58D07C207ED
:10254400C183F19BC207C18313074003636FF70282
:1025540017370000130707CA08431737000013078B
:10256400E7C814436398A60217370000130747A06F
:10257400185B014541CB4111C20706C60545DD8DF7
:102584000297B240014541018280173700001307CA
:1025940027C6D9B70357650035E303574500636F72
:1025A400F704B306F7402146637CD60203280500EE
:1025B400938687001D8FAA9661171736000003566D
:1025C40006962392E60023A006012393060014C175
:1025D4002312F500130786FF973600002391E69433
:1025E4002313B5009735000083D56593B387F54071
:1025F400173700002315F7922105828008419DB703
:102604000145828082800DC197370000938787BE81
:1026140003A3070097370000938747BD83A80700EB
:1026240081469A8763E31701828003A80700636DDC
:10263400F50A636BA80A13878700E367E5FE03D6F0
:102644006700216705076317E60003C781E50507EF
:10265400238CE1E4973500009385058C03D647006D
:1026640003D7650023930700329742074183173548
:1026740000002316E58A638A6702173500001305F4
:1026840025B708416303F50203D5660019ED83D726
:10269400460023A0060121073E9621062392C60088
:1026A40097370000239DE786B6879843E30E17F714
:1026B400973600009386C6B39442E307D7F6835651
:1026C4006700BDF283D64700035647001843A106AE
:1026D400B2962392D70098C383D76500A107173712
:1026E4000000231EF7828280BE86C28725BF0111A7
:1026F40097370000938787B022CC03A4C70B26CA60
:102704004AC84EC606CEAA8413092500854915C0B9
:1027140083C7140003473400858B6304F700405CCF
:10272400FDB71946930544004A85EFE01F89E31875
:1027340035FF2285F2406244D2444249B2490561E0
:102744008280411197370000938747AB22C403A4CA
:10275400C70B26C24AC006C693042500054901E8F2
:102764002285B24022449244024941018280A685D6
:102774001305A40297B002E0E78000CFE30225FF2F
:10278400405CF1BF411197370000938727A722C40B
:1027940003A4C70B26C24AC006C6930425000549F4
:1027A40001E82285B24022449244024941018280D8
:1027B400A6851305A40197B002E0E780E0CAE3020E
:0827C40025FF405CF1BF00009D
:1027CC00971100209381C1E01761002013018182D1
:1027DC001305400097E5FF1F93850582170600201F
:1027EC00130606FE63FAC5008322050023A05500DC
:1027FC0011059105E3EAC5FE17E502001305056313
:10280C00970500209385C5FB1386C19763FAC50015
:10281C008322050023A0550011059105E3EAC5FEAE
:10282C00138581D097350020938545AE6377B5002D
:10283C00232005001105E36DB5FEFD42739002BC2B
:10284C008D4273904280930280087390023097D22D
:10285C00FF1F9382627A93E2320073905230979208
:10286C0000009382C2487390123473002030797147
:10287C0006D622D40018232EA4FCB757002003A799
:10288C00C7E3B75700209387C7E383C787003E860B
:10289C0093053006130500080297AA872307F4FE58
:1028AC008347E4FEC9C78327C4FD37F70200034FF3
:1028BC00470F9306470F83CE16009306470F03CEA0
:1028CC0026009306470F03C336009306470F83C8B1
:1028DC0046009306470F03C856009306470F03C5DF
:1028EC0066009306470F83C576009306470F03C611
:1028FC0086009306470F83C696001307470F0347BE
:10290C00A7002380E701A380D7012381C701A381FE
:10291C00670023821701A38207012383A700A383E7
:10292C00B7002384C700A384D7002385E700B757DB
:10293C00002003A7C7E3B75700209387C7E383C7DB
:10294C0087003E8681451305E0050297B7570020A6
:10295C0003A7C7E3B75700209387C7E383C7870054
:10296C003E8685451305B0020297B757002003A792
:10297C00C7E3B75700209387C7E383C787003E861A
:10298C0085451305C0020297B757002003A7C7E37C
:10299C00B75700209387C7E383C787003E868145DE
:1029AC001305D0020297B757002003A7C7E3B75708
:1029BC0000209387C7E383C787003E8681451305B4
:1029CC00E0020297B757002003A7C7E3B7570020D0
:1029DC009387C7E383C787003E8685451305F002BE
:1029EC000297B757002003A7C7E3B7570020938778
:1029FC00C7E383C787003E8685451305000302970E
:102A0C00B757002003A7C7E3B75700209387C7E346
:102A1C0083C787003E869305F00F130510030297BA
:102A2C00B757002003A7C7E3B75700209387C7E326
:102A3C0083C787003E868145130520030297B7574D
:102A4C00002003A7C7E3B75700209387C7E383C7CA
:102A5C0087003E868145130530030297B757002047
:102A6C0003A7C7E3B75700209387C7E383C7870043
:102A7C003E868145130540030297B757002003A7F4
:102A8C00C7E3B75700209387C7E383C787003E8609
:102A9C008145130550030297B757002003A7C7E3DE
:102AAC00B75700209387C7E383C787003E86BD4591
:102ABC00130560030297B757002003A7C7E3B75766
:102ACC0000209387C7E383C787003E86BD45130567
:102ADC0070030297B757002003A7C7E3B75700202E
:102AEC009387C7E383C787003E8681451305800320
:102AFC000297B757002003A7C7E3B7570020938767
:102B0C00C7E383C787003E86814513059003029770
:102B1C00B757002003A7C7E3B75700209387C7E335
:102B2C0083C787003E8685451305A0030297B757D8
:102B3C00002003A7C7E3B75700209387C7E383C7D9
:102B4C0087003E8685451305B0030297B7570020D2
:102B5C0003A7C7E3B75700209387C7E383C7870052
:102B6C003E869305F00F1305C0030297B75700205C
:102B7C0003A7C7E3B75700209387C7E383C7870032
:102B8C003E869305F00F1305D0030297B75700202C
:102B9C0003A7C7E3B75700209387C7E383C7870012
:102BAC003E8681451305E0030297B757002003A723
:102BBC00C7E3B75700209387C7E383C787003E86D8
:102BCC0081451305F0030297B757002003A7C7E30D
:102BDC00B75700209387C7E383C787003E8681459C
:102BEC00130500040297A30704FE31A08347F4FEEB
:102BFC008507A307F4FE0347F4FE8D47E3F8E7FED1
:102C0C00A30704FE71A8B757002003A8C7E3034726
:102C1C00F4FE93870197BA9783C70700860793F74B
:102C2C00F70F9387170413F7F70FB7570020938705
:102C3C00C7E483D7870093F6F70FB7570020938725
:102C4C00C7E383C787003E86B6853A850298B75797
:102C5C00002003A8C7E30347F4FE93870197BA97B4
:102C6C0083C707009387170293F7F70F860713F7AD
:102C7C00F70FB75700209387C7E483D7A70093F6C5
:102C8C00F70FB75700209387C7E383C787003E86AB
:102C9C00B6853A8502988347F4FE8507A307F4FEB0
:102CAC000347F4FE9947E3F0E7F6B757002003A774
:102CBC00C7E3B75700209387C7E383C787003E86D7
:102CCC008945130590050297B757002003A7C7E362
:102CDC00B75700209387C7E383C787003E86854597
:102CEC001305A0050297B757002003A7C7E3B757F2
:102CFC0000209387C7E383C787003E868145130571
:102D0C00B0050297B757002003A7C7E3B7570020B9
:102D1C009387C7E383C787003E86C1451305C0056B
:102D2C000297B757002003A7C7E3B7570020938734
:102D3C00C7E383C787003E86930540021305D00581
:102D4C000297B757002003A7C7E3B7570020938714
:102D5C00C7E383C787003E86AD451305B0070297CE
:102D6C00B757002003A7C7E3B75700209387C7E3E3
:102D7C0083C787003E869305800C1305D007029706
:102D8C00B757002003A7C7E3B75700209387C7E3C3
:102D9C0083C787003E86930520081305E00702973A
:102DAC00B757002003A7C7E3B75700209387C7E3A3
:102DBC0083C787003E869305400B1305F0070297E7
:102DCC00B757002003A7C7E3B75700209387C7E383
:102DDC0083C787003E869305C00B1305E005029759
:102DEC000100B250225445618280797122D60018BC
:102DFC00AA87232CB4FC3287231FF4FCBA87A30EBA
:102E0C00F4FC231604FEA30704FE89A08357E4FDFB
:102E1C000347F4FE832684FD369703470700B3D798
:102E2C00E74013F717008347F4FEB317F700139727
:102E3C00070141878317C4FED98FC207C1872316A8
:102E4C00F4FE8347F4FE8507A307F4FE0347F4FE64
:102E5C008347D4FDE36CF7FA8357C4FE3E853254A6
:102E6C0045618280797122D60018AA87231FF4FC51
:102E7C00BD47A307F4FE0357E4FD8347F4FEB357A5
:102E8C00F740858B81C78347F4FE39A08347F4FE56
:102E9C00FD17A307F4FEC5B73E8532544561828009
:102EAC00797122D60018AA87231FF4FCA30704FE0D
:102EBC000DA00357E4FD8347F4FEB357F740858B11
:102ECC0081C78347F4FE29A88347F4FE8507A3072F
:102EDC00F4FE0347F4FEB947E3FDE7FC9307F00F5C
:102EEC003E85325445618280797122D60018AA87BA
:102EFC002E87231FF4FCBA87231EF4FCBD47A307BF
:102F0C00F4FE8347F4FE0547B317F7001397070148
:102F1C0041878317E4FDF98FC207C1872316F4FE9E
:102F2C008347F4FE0547B317F70013970701418752
:102F3C008317C4FDF98FC207C1872315F4FE03570D
:102F4C00C4FE8357A4FE631DF7008357C4FE99E7A4
:102F5C008347F4FEFD17A307F4FE65B7814729A844
:102F6C008357C4FE13F7F70F8357A4FE93F7F70F9D
:102F7C00B307F74093F7F70F3E85325445618280D3
:102F8C00797122D60018AA872E87231FF4FCBA87E2
:102F9C00231EF4FCA30704FEADA88347F4FE0547EB
:102FAC00B317F7001397070141878317E4FDF98FD7
:102FBC00C207C1872316F4FE8347F4FE0547B317F7
:102FCC00F7001397070141878317C4FDF98FC207D8
:102FDC00C1872315F4FE0357C4FE8357A4FE631D5B
:102FEC00F7008357C4FE99E78347F4FE8507A307D0
:102FFC00F4FE05A0814725A08357C4FE13F7F70FF5
:10300C008357A4FE93F7F70FB307F74093F7F70F27
:10301C0039A00347F4FEB947E3F1E7F881473E8551
:10302C00325445618280011122CE0010A30704FEA8
:10303C0085A88347F4FE938617000347F4FEB687F2
:10304C008607B6978A07B75600209386C6E6BE96C3
:10305C00B75700201386C7E6BA878607BA978A0740
:10306C00B297D4C38346F4FE8347F4FE138717004C
:10307C00B6878607B6978A07B75600209386C6E6AA
:10308C00BE96B75700201386C7E6BA878607BA974D
:10309C008A07B29794C78347F4FE8507A307F4FE0B
:1030AC008347F4FED9D7B75700209387C7E6375725
:1030BC000020130787E798C7B75700209387C7E608
:1030CC00375700201307C7E698CBB7570020375760
:1030DC0000201307C7E623A2E7E80100724405614C
:1030EC008280411122C600080100324441018280D5
:1030FC00011106CE22CC00102326A4FE2324B4FEFC
:10310C002322C4FE4146832584FEB7570020138535
:10311C00C7E3EF00C07E6946832544FEB757002005
:10312C001385C7E4EF00A07DB75700209387C7E451
:10313C0023980700B75700209387C7E4239907000B
:10314C00B75700209387C7E4239A0700B75700208E
:10315C009387C7E4239B0700B75700209387C7E4E6
:10316C00239C0700C9350325C4FEEFF04FF0953FB3
:10317C000100F240624405618280011122CE0010F0
:10318C002326A4FE8327C4FE37570020834687E6F8
:10319C002380D700130787E603471700A380E700B7
:1031AC000100724405618280011122CE0010232699
:1031BC00A4FE375700208327C4FE83C607002304D0
:1031CC00D7E6130787E683C71700A300F7000100B3
:1031DC00724405618280011122CE00102326A4FEC8
:1031EC00AE873287A305F4FEBA872314F4FE834717
:1031FC00B4FE8A070327C4FEBA9798438347B4FEEC
:10320C008A078326C4FEB697584398C38347B4FEF7
:10321C008A070327C4FEBA979C43035784FE239066
:10322C00E7000100724405618280011106CE22CCB8
:10323C000010B75700209387C7E303A84700B75780
:10324C0000209387C7E303C787009307E4FE8946F2
:10325C003A86BE85014502988357E4FE3E86814539
:10326C00B7570020138547E8BD370100F240624490
:10327C0005618280797106D622D40018AA87A30F23
:10328C00F4FCB757002083A747E803D707001D4677
:10329C00938501973A85913EAA872317F4FEB75779
:1032AC00002083A747E89C4703D707001D4693855A
:1032BC0001973A851D3EAA872316F4FEB7570020C6
:1032CC009387C7E3DC4783C707009D8BA305F4FEF8
:1032DC008347F4FD858BFDC78357E4FEF5C7835701
:1032EC00C4FEFDC30357E4FE8357C4FE63F4E70634
:1032FC00B757002083A787E8858B99C7B75700205D
:10330C00094723A4E7E8E1A0B757002083A787E883
:10331C0013872700B757002023A4E7E8B7570020EE
:10332C0003A787E8A1476314F70AB757002023A423
:10333C0007E8B757002003D787E6136727002394C5
:10334C00E7E6B757002003D787E61377F7EF239408
:10335C00E7E6A5AB0357E4FE8357C4FE6378F70694
:10336C00B757002083A787E8858B99E7B7570020CC
:10337C00054723A4E7E8A1A8B757002083A787E84F
:10338C0013872700B757002023A4E7E8B75700207E
:10339C0003A787E89D47631BF702B757002023A4B8
:1033AC0007E8B757002003D787E613671700239465
:1033BC00E7E6B757002003D787E61377F7F7239490
:1033CC00E7E621A3010021A0010011A00100834721
:1033DC00F4FD898B6388074EB757002003D787E627
:1033EC006D9B2394E7E6B757002003D787E65D9BD8
:1033FC002394E7E6B757002003D787E63D9B239439
:10340C00E7E68357E4FE858BB337F00013F7F70F2D
:10341C008357C4FE858BB337F00093F7F70FB98F42
:10342C0093F7F70FC1C38357E4FE858BADE7B7570E
:10343C0000209387C7E483D7270193E717001397DE
:10344C0007014183B75700209387C7E42399E7000E
:10345C00B7570020938787E683C71700898B93F7AC
:10346C00F70F95CBB757002003D787E61377F7DF15
:10347C002394E7E6B75700209387C7E3DC4703C7DD
:10348C000700B75700209387C7E3DC47799B137776
:10349C00F70F2380E700B75700209387C7E4239AE0
:1034AC000700C5A8B75700209387C7E483D7470107
:1034BC0093960701C182416775176373D700F5575F
:1034CC00C207C1838507139707014183B7570020B3
:1034DC009387C7E4239AE7008357E4FE858BA1E327
:1034EC00B75700209387C7E403D74701B75700208D
:1034FC009387C7E483D7C700636DF708B7570020DD
:10350C009387C7E483D72701F99B1397070141835E
:10351C00B75700209387C7E42399E7009DA8B757B6
:10352C0000209387C7E483D72701858BBDC3B7578A
:10353C0000209387C7E483D72701F99B13970701D2
:10354C004183B75700209387C7E42399E700B75707
:10355C0000209387C7E3DC4703C70700B757002059
:10356C009387C7E3DC47136717001377F70F2380A4
:10357C00E700B757002003D787E61367470023946B
:10358C00E7E6B757002003D787E61377F7DF2394D6
:10359C00E7E68357E4FEA18BB337F00013F7F70F80
:1035AC008357C4FEA18BB337F00093F7F70FB98F95
:1035BC0093F7F70FC1C38357E4FEA18BADE7B75761
:1035CC0000209387C7E483D7270193E7270013973D
:1035DC0007014183B75700209387C7E42399E7007D
:1035EC00B7570020938787E683C71700918B93F713
:1035FC00F70F95CBB757002003D787E61377F7BFA4
:10360C002394E7E6B75700209387C7E3DC4703C74B
:10361C000700B75700209387C7E3DC476D9B1377F0
:10362C00F70F2380E700B75700209387C7E4239B4D
:10363C000700C5A8B75700209387C7E483D7670155
:10364C0093960701C182416775176373D700F557CD
:10365C00C207C1838507139707014183B757002021
:10366C009387C7E4239BE7008357E4FEA18BA1E378
:10367C00B75700209387C7E403D76701B7570020DB
:10368C009387C7E483D7C700636DF708B75700204B
:10369C009387C7E483D72701F59B139707014183D1
:1036AC00B75700209387C7E42399E7009DA8B75725
:1036BC0000209387C7E483D72701898BBDC3B757F5
:1036CC0000209387C7E483D72701F59B1397070145
:1036DC004183B75700209387C7E42399E700B75776
:1036EC0000209387C7E3DC4703C70700B7570020C8
:1036FC009387C7E3DC47136747001377F70F2380E3
:10370C00E700B757002003D787E613678700239499
:10371C00E7E6B757002003D787E61377F7BF239464
:10372C00E7E68357E4FE93F70704B337F00013F78B
:10373C00F70F8357C4FE93F70704B337F00093F7E2
:10374C00F70FB98F93F7F70FD9C38357E4FE93F7AD
:10375C000704BDE7B75700209387C7E483D7270139
:10376C0093E74700139707014183B75700209387CE
:10377C00C7E42399E700B7570020938787E683C7F0
:10378C001700A18B93F7F70F85CFB757002083D67F
:10379C0087E67D771307F77F758F2394E7E6B75796
:1037AC0000209387C7E3DC4703C70700B757002007
:1037BC009387C7E3DC47759B1377F70F2380E700EC
:1037CC00B75700209387C7E4239C0700FDA8B75781
:1037DC0000209387C7E483D7870193960701C182A2
:1037EC00416775176373D700F557C207C183850707
:1037FC00139707014183B75700209387C7E4239C95
:10380C00E7008357E4FE93F70704A1E3B7570020C2
:10381C009387C7E403D78701B75700209387C7E482
:10382C0083D7C7006363F70AB75700209387C7E4B1
:10383C0083D72701ED9B139707014183B7570020CE
:10384C009387C7E42399E70049A0B75700209387D3
:10385C00C7E483D72701918BA5CBB757002093875B
:10386C00C7E483D72701ED9B139707014183B75713
:10387C0000209387C7E42399E700B757002093876C
:10388C00C7E3DC4703C70700B75700209387C7E39C
:10389C00DC47136727001377F70F2380E700B75730
:1038AC00002003D787E6136707012394E7E6B75791
:1038BC00002083D687E67D771307F77F758F2394D7
:1038CC00E7E621A0010011A00100B7570020938763
:1038DC00C7E3DC4783C7070013F777008347B4FEC1
:1038EC00630AF700B757002003D787E6136707046E
:1038FC002394E7E60100B2502254456182802A836A
:10390C0009CA83830500230073007D160503850512
:10391C006DFA82802A8311C62300B3007D1605033D
:10392C0065FE8280B717004003C777051A0592051C
:10393C004D8D1377E70F13653500A38BE7041375D3
:10394C00F50FA38CA7048280B717004003C7770537
:10395C001377E70FA38BE704130700F8A38DE70495
:10396C003D47238CE70413075003A38CE7048280A4
:10397C00B717004083C7E7040D8993F7C70FC98FAA
:10398C0073270080218B938681D001CB7327008015
:10399C0098C298425D9B7310078001000100371795
:1039AC000040130670052300C704130680FA230099
:1039BC00C704010001002307F70423000704732741
:1039CC0000809C42A18BD98F7390078023A401D0D7
:1039DC000100010082804111B7170040985F3AC680
:1039EC00945F3247E39CE6FE324541018280597177
:1039FC00E2C486D6A2D4A6D2CAD0CECED2CCD6CA57
:103A0C00DAC8DEC6E6C2EAC06EDE2A8C02D6EF0049
:103A1C00F047F3270080A18B938D81D091CBF327B6
:103A2C00008023A0FD0083A70D00DD9B7390078011
:103A3C0001000100B7170040130770052380E7044D
:103A4C00130780FA2380E7040100010003C7F70283
:103A5C001377770FA387E70203C7F7021367870073
:103A6C00A387E702238007047327008083A70D0038
:103A7C00A18BD98F7390078023A401D00100010082
:103A8C00F3270080A18B91CBF327008023A0FD00AE
:103A9C0083A70D00DD9B7390078001000100B71711
:103AAC000040130770052380E704130780FA238076
:103ABC00E7040100010003C7E7021377C70F238750
:103ACC00E70203C7E702136717002387E702238087
:103ADC0007047327008083A70D00A18BD98F7390E7
:103AEC00078023A401D001000100130780C13347D4
:103AFC00E502116A93070AE8130B5002130660FBE8
:103B0C008544B39484018D848569938909FAB399AA
:103B1C008901371D0040814A814B1309700513043C
:103B2C0080FA7D1AB347F502330B67033EC6BD67B7
:103B3C00938707A6334BFB023306C702B3066041DB
:103B4C0036CAB346F60237460F0013060624334531
:103B5C00C5021306001036C8B384E4021307A0AAEA
:103B6C00B389A902B384E402B3C9C902B3C4F40291
:103B7C009396390036CC93090D0473260080218A64
:103B8C0011CA7326008023A0CD0003A60D005D9AF8
:103B9C007310068001000100930770052380F90063
:103BAC00238089000100010003463D051376860F32
:103BBC00A309CD0403463D0513661600A309CD04E5
:103BCC0023800900F325008003A60D00218A4D8E69
:103BDC007310068023A401D001000100916C7326A0
:103BEC000080218A11CA7326008023A0CD0003A671
:103BFC000D005D9A7310068001000100930770059B
:103C0C002380F900238089000100010003463D0553
:103C1C00E17713660602A309CD0403560D0533663E
:103C2C009601420641822318CD0403560D055D8E84
:103C3C00420641822318CD0423800900F32500801D
:103C4C0003A60D00218A4D8E7310068023A401D08B
:103C5C000100010003463D0513760602630C06368F
:103C6C0003463D05218A6DDE6810EF003026732671
:103C7C000080218A11CA7326008023A0CD0003A6E0
:103C8C000D005D9A7310068001000100238029014C
:103C9C00238089000100010003463D05E17713767E
:103CAC00F60DA309CD0403463D0513660602A309D0
:103CBC00CD0403560D053366960142064182231846
:103CCC00CD0403560D055D8E420641822318CD04AA
:103CDC0023800900F325008003A60D00218A4D8E58
:103CEC007310068023A401D00100010003463D059A
:103CFC0013760602630C063003463D05218A6DFEE1
:103D0C00D9392A8632CEC1397246E30DC5FE035627
:103D1C000D05325533669601420641822318CD04B7
:103D2C00EF00901C03463D05218A6DDE83550D0581
:103D3C0003462D05B247B3F5450133064603B2954C
:103D4C009D8D6355BB00D24763CEF52E0946637D2E
:103D5C00762F73260080218A11CA7326008023A037
:103D6C00CD0003A60D005D9A7310068001000100C2
:103D7C0023802901238089000100010003463D05B1
:103D8C009375FC0F1376860FA309CD0403463D05EE
:103D9C004D8EA309CD04238009007325008003A652
:103DAC000D00218A498E7310068023A401D00100D6
:103DBC00010003463D051D8A63138631732600807E
:103DCC00218A11CA7326008023A0CD0003A60D0002
:103DDC005D9A731006800100010023802901238065
:103DEC0089000100010003463D0591651376F60D2F
:103DFC00A309CD0403463D0513660602A309CD04B1
:103E0C0003560D054D8E2318CD0403560D05A165E3
:103E1C004D8E2318CD0423800900F325008003A6C2
:103E2C000D00218A4D8E7310068023A401D0010051
:103E3C00010003463D0513760602630A062A034673
:103E4C003D05218A6DDE6810EF0050087326008056
:103E5C00218A11CA7326008023A0CD0003A60D0071
:103E6C005D9A7310068001000100238029012380D4
:103E7C0089000100010003463D0591651376F60D9E
:103E8C00A309CD0403463D0513660602A309CD0420
:103E9C0003560D054D8E2318CD0403560D05A16553
:103EAC004D8E2318CD0423800900F325008003A632
:103EBC000D00218A4D8E7310068023A401D00100C1
:103ECC00010003463D0513760602630E06240346E5
:103EDC003D05218A6DFE0136AA8CF53CE30F95FF5A
:103EEC0003560D05916532554D8E2318CD04EF0008
:103EFC00A07F03463D05218A6DDE73260080218A52
:103F0C00938581D001CA7326008090C190415D9A3F
:103F1C007310068001000100238029012380890091
:103F2C000100010003463D051376F60DA309CD04EF
:103F3C0023800900732500809041218A498E7310DB
:103F4C00068023A401D00100010003560D05034592
:103F5C002D05E24733764601330545032A961D8E1F
:103F6C001305800C635DC01E3306A6023346960211
:103F7C00050609453346A602635FC0240355CD02EE
:103F8C001308F00F15813295635DA8300946637EE6
:103F9C00561DF3270080A18B81CBF32700809CC199
:103FAC009C41DD9B7390078001000100B717004016
:103FBC00130770052380E704130780FA2380E704B6
:103FCC000100010003D7C70289668116558F42078D
:103FDC00418389AC73260080218A11CA7326008024
:103FEC0023A0CD0003A60D005D9A7310068001007E
:103FFC000100238029012380890001000100034670
:10400C003D0513660602A309CD043DB1732600805D
:10401C00218A11CA7326008023A0CD0003A60D00AF
:10402C005D9A731006800100010023802901238012
:10403C0089000100010003463D0513660602A30931
:10404C00CD0479B1E3970BD0C247850B13961500BD
:10405C003346F60293FBFB0F6351B0060506894508
:10406C003346B602F3250080A18991C9F32500805F
:10407C0023A0BD0083A50D00DD9973900580010080
:10408C000100238029012380890001000100835550
:10409C00CD022E96420641822316CD0223800900C2
:1040AC00F325008003A60D00218A4D8E7310068027
:1040BC0023A401D0010001001DB67D164DB7732657
:1040CC000080218A11CA7326008023A0CD0003A68C
:1040DC000D005D9A731006800100010023802901F8
:1040EC00238089000100010003463D0555B173266C
:1040FC000080218A11CA7326008023A0CD0003A65C
:10410C000D005D9A731006800100010023802901C7
:10411C00238089000100010003463D051366060259
:10412C00A309CD04CDB973260080218A11CA732648
:10413C00008023A0CD0003A60D005D9A73100680AD
:10414C000100010023802901238089000100010066
:10415C0003463D0513660602A309CD04A9B3330635
:10416C00A602334696027D1629B573260080218A55
:10417C0001CA7326008090C190415D9A731006802D
:10418C000100010037150040130670052300C5041B
:10419C00130680FA2300C504010001000356C50272
:1041AC00056801181376F60F336606014206418244
:1041BC002316C50223000504732500809041218A33
:1041CC00498E7310068023A401D001000100850ADA
:1041DC0093FAFA0F5DB271C60355CD023308C04095
:1041EC0015816350050D0946637C5607F327008043
:1041FC00A18B81CBF32700809CC19C41DD9B7390EC
:10420C00078001000100B7170040130770052380D9
:10421C00E704130780FA2380E7040100010003D7A9
:10422C00C7027D8B2396E702238007047327008047
:10423C009C41A18BD98F7390078023A401D00100DE
:10424C000100B650265496540659F649664AD64A89
:10425C00464BB64B264C964C064DF25D6561828002
:10426C0073260080218A01CA7326008090C1904178
:10427C005D9A7310068001000100238029012380C0
:10428C008900010001000356CD0205650115137666
:10429C00F60F498E420641822316CD022380090077
:1042AC0021BFF3270080A18B81CBF32700809CC119
:1042BC009C41DD9B7390078001000100B717004003
:1042CC00130770052380E704130780FA2380E704A3
:1042DC000100010003D7C70216063297CDB99147EA
:1042EC0063EAB70897B70200938707E28A05BE9581
:1042FC0098413E97B71700409387470B028794432A
:10430C001345F5FF37170040E98E94C39306070B4E
:10431C009C42E98F9CC29307070A9843798D88C306
:10432C00828090439346F5FF37170040758E90C3FB
:10433C001306070B1C42C98F1CC29307070A98432C
:10434C00F98E94C38280944337170040C98E94C36E
:10435C009306070B9C421345F5FF65BF9443134727
:10436C00F5FF758F98C3B71700409387070A9843DA
:10437C00498F98C382809843498FEDB7914763EA80
:10438C00B70897B70200938767D98A05BE959841FD
:10439C003E97B71700409387470D02879443134508
:1043AC00F5FF37170040E98E94C39306070D9C4226
:1043BC00E98F9CC29307070C9843798D88C3828040
:1043CC0090439346F5FF37170040758E90C3130644
:1043DC00070D1C42C98F1CC29307070C9843F98E1A
:1043EC0094C38280944337170040C98E94C39306BC
:1043FC00070D9C421345F5FF65BF94431347F5FF2A
:10440C00758F98C3B71700409387070C9843498F53
:10441C0098C382809843498FEDB79357E50093F783
:10442C000730C98FC2070947C183638BE5046362F8
:10443C00B70213C6F7FF9DE937170040835667098B
:10444C00F18E231BD7081307C70C1443C98E14C352
:10445C0021A00D47638CE50237170040231FF70896
:10446C0083562709D58F2319F70882803717004008
:10447C0083566709F18E231BD7081307870CF1B7F6
:10448C003717004083566709DD8E65BF371700402C
:10449C0083566709DD8EC5B73757004083570780B1
:1044AC0011C593E707102310F7808280C207C183E0
:1044BC0093F7F7EFC207C183FDB737570040835717
:1044CC00078011C593E707202310F7808280C2076D
:1044DC00C18393F7F7DFC207C183FDB7B75700401D
:1044EC002398A78082809377E50F99C19367150075
:1044FC00375700402318F7808280B757004003D706
:10450C00478183D78781C207D98FE98FA207A183FF
:10451C003385A740133515008280411102C4B7576B
:10452C00004002C6938707803EC69357C5013EC420
:10453C00224722059357850019CB324751073AC6BB
:10454C003247084341017D8D3335A00082803247CC
:10455C00C1836107EDB7411122C43717004006C66D
:10456C008347270203570702138481D093F7F70F71
:10457C00420741833DE51377F79F420793F7F7070F
:10458C004183F3260080A18A81CAF326008014C0DF
:10459C001440DD9A7390068001000100B7160040AC
:1045AC00130670052380C604130680FA2380C60404
:1045BC000100010093F7F70F2381F6022390E60226
:1045CC0023800604732700801C40A18BD98F739025
:1045DC00078023A401D001000100B2402244410114
:1045EC00828093E7070813670740F3260080A18AAF
:1045FC0081CAF326008014C01440DD9A73900680A3
:10460C0001000100B7160040130670052380C60494
:10461C00130680FA2380C604010001002381F602F0
:10462C002390E60223800604732700801C40A18B94
:10463C00D98F7390078023A401D001000100294574
:10464C0097C0FF1FE780800DF3270080A18B81CBE3
:10465C00F32700801CC01C40DD9B73900780010079
:10466C000100B7170040130770052380E7041307F8
:10467C0080FA2380E7040100010003D707021367C7
:10468C0007202390E702238007042DBFB7170040B3
:10469C0003D787009317070113770704C18309EB2E
:1046AC00FD8B3755E801130505803345F5028280F3
:1046BC0013F7070C930600046316D700FD8B3745E0
:1046CC009C1CD5B72165130505D0828037E700E027
:1046DC001C435443A183E206D58F1CC1FD572320F4
:1046EC00F7182322F718828013178500B7E700E02C
:1046FC0023A0E710618123A2A7108280B7F700E006
:10470C008847CC47828017E7FF1F1307676CAA877F
:10471C00084397160020938666BFAA9763EAD700D2
:10472C00973600209386066D63E4F6001CC38280E6
:10473C007D558280011106CE22CC83A781D191C3F5
:10474C00829703A481D71315040183A741D141811A
:10475C0081C72AC68297324583D781806374F5045A
:10476C0003D7A1806373A70483A601D189C66244D1
:10477C00F240056182861315040185074181998FEA
:10478C00198D65473305E502C207C18389831387F9
:10479C00F7FF3A953345F5021375F50FF240624475
:1047AC000561828013054006D5BF0145C5BF2D4567
:1047BC002DEBDC41411122C426C206C603C70700FB
:1047CC0083C71700B6843284A207D98F0D6793066E
:1047DC0097A16398D702B93F9387618003C70700FD
:1047EC006374E5002380A70083C707000547239067
:1047FC00E4002300F4000145B240224492444101FC
:10480C008280130787902945E398E7FECC458947BA
:10481C002390F4000946228597C0FF1FE780607043
:10482C00D9BF8280DC41411122C406C626C203C80E
:10483C00070083C717002944A207B3E707010D68D7
:10484C0013082890639607038547B284EFD030563F
:10485C002A8419ED03A7C1D101CF83C7140083C6E5
:10486C000400A207D58F93B7170013851700029782
:10487C00B240228522449244410182808347450004
:10488C00858BBDC3011122CC2A8403552500938549
:10489C0081ED06CEEFD0704C058939C1035524004B
:1048AC00014781460546ED45EFD090052AC60DC956
:1048BC0097E7FF1F83D727F42314F10085472315AF
:1048CC00F10083C761802300F500035524000146E5
:1048DC002C00EFE0702509C5ED452800EFD0101A2B
:1048EC00F24062440561828082804165411193856A
:1048FC0081ED7D1506C6EFF07014B24097E6FF1FF0
:10490C00938606EC4146954517E5FF1F130505EC0C
:10491C0041016FF0D00723AEA1D08280854763168A
:10492C00F502834706002386F1D003C761806370CC
:10493C00F702411117050000130585F406C6EF10A8
:10494C00D14CB2400145410182800945828001452C
:10495C00828089476303F50263E9A70001ED83C7F1
:10496C0061802380F500014582808D47630EF50040
:10497C000945828083C7C1D0EDB797E7FF1F83D766
:10498C0087E52390F500C5B797E7FF1F83D78744CA
:10499C002392F50097E7FF1F938747E303D7A702FE
:1049AC0083D7A7032390E5002391F5008547238344
:1049BC00F50055BF411106C6B53B9387618003C70F
:1049CC000700637AE5002380A70017050000130594
:1049DC0025EBEF109143B240014541018280C16744
:1049EC00F917630CF502411122C406C685472A84C7
:1049FC00639AF50022852244B240938581ED4101F2
:104A0C006FF0D00389476396F5008545EF10713A36
:104A1C0075D1B24022444101828082803285D041DE
:104A2C00411106C683451600034806000D66A20513
:104A3C00B3E5050113980501135808419308A6A284
:104A4C0063C80803130626A263580603757613067B
:104A5C00C65DB295C205C18119466363B60217A83B
:104A6C0002001308E86C8A05C295904142960286B2
:104A7C00130606A5630DC81023900600A94525A0B2
:104A8C001D469D456361E6022146198E63F3C700FE
:104A9C003E862390C600938501D2BA9597C0FF1F1E
:104AAC00E78020488145B2402E85410182802D4609
:104ABC009D45E36AE6FE3146198E63F3C7003E86D8
:104ACC002390C60097A502009385456FF9B7314630
:104ADC009D45E36AE6FC3546198E63F3C7003E86B6
:104AEC002390C60097A502009385456C7DB741467F
:104AFC009D45E36AE6FA4546198E63F3C7003E8688
:104B0C002390C60097A502009385056979B74146A5
:104B1C009D45E36AE6F84546198E63F3C7003E8669
:104B2C002390C60097A502009385C565BDB7414685
:104B3C009D45E36AE6F64546198E63F3C7003E864B
:104B4C002390C60097A5020093858562B9B74146AC
:104B5C009D45E36AE6F44546198E63F3C7003E862D
:104B6C002390C60097A502009385455F3DB7354657
:104B7C009D45E36AE6F23946198E63F3C7003E861B
:104B8C002390C60097A502009385455C39B719465A
:104B9C009D45E36AE6F03386E54063F3C7003E8645
:104BAC002390C6009385C180CDBD97E6FF1F9386E9
:104BBC00E6C64146CD4517E5FF1F1305E5C66FF068
:104BCC00005D828082802A8783C701D303A541D3ED
:104BDC0083C6718399E301458280035605006316F1
:104BEC00E60003466500E309D6FEFD1793F7F70FC1
:104BFC002105CDB70111930500030D4506CEEFA09D
:104C0C000060930500051145EFA0605F9305C0039C
:104C1C000545EFA0C05E85471306F10085451305D9
:104C2C005030A307F100EF40A269F2400561828089
:104C3C008547631AF5001166130686A9894503C5D5
:104C4C0041D46F80E02C89476317F500894503C573
:104C5C0041D46F80004D828085476390F50219EA3C
:104C6C00138781DB238EB1D28347070093E727009C
:104C7C002300F700238CC1D2828009476391E5029F
:104C8C0019EE238EF1D2138781DB8347070003D5FE
:104C9C00A1D393E727002300F7006F003005828033
:104CAC00011122CC06CE83A7C1D22E8499C79C4772
:104CBC0089C76244F240056182876C00130570401D
:104CCC00EF201242324622858145EF30C203F2407A
:104CDC0062440561828041119397050122C406C686
:104CEC00C1872E8463DF070003C541D4EF701047E2
:104CFC0019C1EF70903F2165218DB24022444101D2
:104D0C00828093F7150085C317E6FF1F130686C52F
:104D1C0097E5FF1F938545C403C541D4EF40C228D6
:104D2C0013451400D9BF13F5250061D96131116603
:104D3C00130686A9894503C541D4EF80601D134530
:104D4C00240065BF797122D44AD052CC06D626D223
:104D5C004ECE56CA91472A842E89138A01D46314E5
:104D6C00F50483D7A5001306E100854513055030E3
:104D7C00239DF1D223070100238E01D2EF40425430
:104D8C0083A7C1D291C7DC4781C7CA852285829788
:104D9C0023208A00B250225492540259F249624A9A
:104DAC00D24A4561828003270A00E31BF7FC9384F7
:104DBC00A1D303D5040085451D3103D504008545D9
:104DCC00EF00407883DA0400C167F917639BFA029D
:104DDC0085449305E10013055041238E01D2A38B2A
:104DEC00918223070100EF20B22F8347E100A1E35A
:104DFC0003C781D39147E315F7F8ED3B238C01D220
:104E0C0041B783A941D383C401D3F9D003D5290079
:104E1C0011C99305E100EFD0B05909C54C45568531
:104E2C00EFF0C041FD1493F4F40FA109F9BF83A76F
:104E3C0081D283C74700898BC5DF9305000A0D45D6
:104E4C00EFA0E03B9305000A1145EFA0403B8145E4
:104E5C000545EFA0C03A1306E10085451305503017
:104E6C0023079100EF40C24561B7011117050000FF
:104E7C001305A5E606CE22CCEF806052138441D4F4
:104E8C0085471306F10085452300A4001305404116
:104E9C00A307F100EF30A20E7D55EFC0B06E7D552B
:104EAC00EFF0A03619339134092D170500001305C6
:104EBC0065D8953417050000130505D12D2503453C
:104ECC0004006244F240854505616F70307223A680
:104EDC00B1D223A4A1D2828023AAB1D22388A1D299
:104EEC008280797106D622D426D24AD04ECE52CCAC
:104EFC0083A701D411476398E70A83C7C1D399EB01
:104F0C004144B2502285225492540259F249624AC9
:104F1C0045618280B284368903A441D383C701D30F
:104F2C0003C7718385C7834644006393A6028346F7
:104F3C005400639FB60083466400639BE6000355F0
:104F4C00240093056100EFD0B04601E9554455BFEC
:104F5C00FD1793F7F70F2104F1B79389A1D303D56C
:104F6C000900014781462686ED45035A0400EFD01F
:104F7C0020192AC64D4451D52686CA8523144101D1
:104F8C002315910097C0FF1FE780A0F903D50900F6
:104F9C0001462C00EFE040392A8425D5ED45280048
:104FAC00EFD0C02DB9BF0947E38CE7F42C001305F3
:104FBC00504123040100EF20B212834781008DCBB6
:104FCC00930500020D45EFA08023930500031145C6
:104FDC00EFA0E02295450545EFA060228547300003
:104FEC008545130550302304F100EF40622D09BFB5
:104FFC00113139B741114AC03689D44126C206C68F
:10500C0022C403C41600B28403C6060022040D6831
:10501C00518C01CF1308B8A42D4563080407B24086
:10502C00224492440249410182809306D8A4630031
:10503C00D402930628A2630CD400F5789388E85C1C
:10504C00A298C20893D80801854663EC160303D5D1
:10505C00A500953E1DC183A7C1D22286224403A878
:10506C00070083455500B24003454500A6874A8793
:10507C0092440249854641010288231009000145EA
:10508C0079BF1306B8A46319C40203D801841D4563
:10509C00E37707F93308E84063D307013E88CC4532
:1050AC0013160801231009014182BA95268597C071
:1050BC00FF1FE78000E7E1B79307A8A46318F4008B
:1050CC0091472310F9001146CC45CDB79307889032
:1050DC006317F40089472310F9000946F5B79307C5
:1050EC00E8A4631AF400DC452310D90083C7070039
:1050FC002380F40069B713087890E31204F9D9BF40
:10510C00011106CE22CC26CA4AC82317D10063133C
:10511C000712DC412E89B28403C4170083C6070032
:10512C008D672204558C9386D7A46306D40093868E
:10513C0027A3631CD4020355A900713401E901456E
:10514C00F2406244D24442490561828083A7C1D2B5
:10515C0003A807008345550003454500A6871307A0
:10516C00E100814622860298E1BF9386C7A46314AE
:10517C00D4020357E10085473545E313F7FC834719
:10518C00060013050008E36DF7FA03A7C1D25843D4
:10519C003E8502976DB7938627906313D40683568A
:1051AC00E1008547EFD0A04041FD03C6140083C742
:1051BC0004008356A90022065D8E03A741D383C742
:1051CC0001D3B5DF835527006397D50283A7C1D2DE
:1051DC0003A80700854703454700834557008D46C4
:1051EC006313F60089460D66A6871307E1001306C4
:1051FC0026900298A9B7FD1793F7F70F2107D1B79F
:10520C009387E7A4E31DF4F20357E1008547354586
:10521C00E318F7F28347060013050008E362F7F280
:10522C00D8453335F00009052300F70003A7C1D298
:10523C00584385B72D4529B7411122C44164130544
:10524C00F4FF938581F206C626C24AC0EFE0107FB8
:10525C001305F4FF938581F1EFE0507E1305F4FF05
:10526C00938581F0EFE0907D1305F4FF938581EF3A
:10527C00EFE0D07C1305F4FF938581EEEFE0107C1A
:10528C0097D6FF1F9386C66E41469305600217D5CD
:10529C00FF1F1305A56E97D4FF1F9384246EEFE0B8
:1052AC00106FCC4C2A890945EFF0AFEA138481F3D7
:1052BC0003D701832316E40003D7A41083D74183BB
:1052CC002312F4002314E40003D7A41183D7A40CF5
:1052DC002315E40003D7C182231AE40003D7A414D6
:1052EC002310F40083D7A40D2318E40003D7A415CE
:1052FC002311F40085472319E40013878182834529
:10530C0007000346170003D7A4182303F400230750
:10531C00F400231CE40003D7A419230BF400230F7F
:10532C00F400231DE4001387418283460700230EFB
:10533C00B400A30EC4002302D40203471700A30633
:10534C00C40203D6A41FA302E402A30AE40203D7F7
:10535C00A42203D5A41C2314C4022318E40203D7EB
:10536C00C18103D6A420231EE40203D7A424231056
:10537C00A4022306B4020D45938581F72303F4029E
:10538C002315C402230AD402231CE402230FF402C3
:10539C00231104022307040223190402230B040221
:1053AC00231D0402EFF0EFDAA28525453536B24015
:1053BC00224492444A850249410182808D671385BB
:1053CC0027A36300A6049387D7A4631DF60089471F
:1053DC00639CF500854735456397F60083470700C6
:1053EC002384F1D4014582808D472945E39DF5FE48
:1053FC0085473545E399F6FE83470700A382F1D430
:10540C00D5B785473545E390F6FE834707002383E0
:10541C00F1D4C9BF8D67138527A36309A6029387AF
:10542C00D7A40145631AF6008947639BF50083C72F
:10543C0081D42300F70005452390A6000145828006
:10544C008D47E39BF5FE83C751D4E5B783C761D481
:10545C00CDB70145828039EFDC41AE8803C8070027
:10546C0083C71700A207B3E707010D68930EF8A4D2
:10547C00639AD70391473548639FF60203A5C8008A
:10548C003283411111469A8506C697C0FF1FE780EB
:10549C0040A9054583A781D58297B2400148428532
:1054AC00410182809308289029486396170185470B
:1054BC006FD0E00F2D484285828041654111938564
:1054CC0001F87D1506C6EFE07057B24097D6FF1F66
:1054DC009386C6704146994517D5FF1F1305C570B5
:1054EC0041016FE0D04A23ACA1D482800111938595
:1054FC0001F822CC06CE2A84EFD0200605891DCDDA
:10550C00014781460546ED452285EFC0703F2AC60E
:10551C0015C597D7FF1F83D7C7722314F100854792
:10552C002315F1002300050001462C002285EFD045
:10553C00B05F09C5ED452800EFC05054F2406244FD
:10554C0005618280C167F917630CF502411122C411
:10555C0006C685472A84639AF50022852244B24008
:10556C00938501F841016FE0704D89476396F50012
:10557C008545EF10010475D1B2402244410182806F
:10558C00828001458280014582804111B286A60548
:10559C002A862D4506C697B0FF1FE780E061B24012
:1055AC000145410182809307B00363EDB7020111FD
:1055BC0022CCB2862A84A60532C62545014606CEE3
:1055CC002EC497B0FF1FE780205FB246A24522860B
:1055DC00294597B0FF1FE780205EF24062440145E9
:1055EC0005618280014582808947630EF50063E77F
:1055FC00A7009307C00311ED014582808D47630915
:10560C00F50011458280930700202390F500EDB73B
:10561C0085479CC1D5B709E9411106C69D37B240F3
:10562C001375F50F410182800545828009E941110E
:10563C0006C6913FB2401375F50F410182800545B6
:10564C008280AA872E85B28581E71396960035BF96
:10565C0011458280AA872E85B28581E71396960024
:10566C0099B711458280AA872E85B28591E3ADBF8B
:10567C001145828001458280034715008347050050
:10568C0022075D8F8347250003453500C207D98F5C
:10569C0062055D8D828093D785002300B500A30041
:1056AC00F50093D70501E1812301F500A301B500B5
:1056BC0082802A960505A30FB5FEE31DC5FE8280E8
:1056CC001C4DF915F91763FAF5008357A5005855C9
:1056DC00B387B7023385E700828001458280AA87B1
:1056EC009306B500014503C60700135715001E05A8
:1056FC00498F850732971375F70FE396D7FE828093
:10570C001C41AA8685C73E877D459305A0030306E9
:10571C00070005071378F60F63710503E319B6FE4E
:10572C0083850700130600036384C5007D558280C2
:10573C0089077D55E31DF7FE98C201458280411112
:10574C0026C206C622C4AE8409E925458147B2406B
:10575C0022449CC09244410182801C412A84F5D78A
:10576C0003C707007DD38356450003D76700E39E2C
:10577C00E6FC03C517004535058961F91C40C1BF1E
:10578C0083473500A9CB011122CC06CE93054503E6
:10579C0010592A840345150085462EC6653D85475C
:1057AC0015E510585C50584CA3010400B307F640A3
:1057BC0063FDE700834624008947B2456397F600F2
:1057CC000345140085463A9671358147F240624490
:1057DC003E850561828081473E8582808147338783
:1057EC00F500834607003307F50085072300D70033
:1057FC00E317F6FE828093170601C183A183A38D64
:10580C00F500238DC500034705008D476318F7008D
:10581C004182238AC5002182A38AC50082801C593B
:10582C00638AB702411122C426C206C62A84AE84FA
:10583C00813F01ED034514008546268693054403FC
:10584C00093519C10545FD5404D8B240224492448F
:10585C004101828001458280411122C406C6FD5758
:10586C00A30105001CD92A845D3F7DE9034734233D
:10587C00834724239306B00E22075D8F834744038E
:10588C006388D700E10793F7F70F854663E3F60CBF
:10589C00AD67938757A56302F702834704048346D9
:1058AC00F403A207D58F9386F7FFFD8E89E6930646
:1058BC0000206383D7060D45A1A8930664089305C1
:1058CC00E40817A602001306A69C83C7060003482B
:1058DC00060085060506B3870741638AD502F5D70E
:1058EC00834704048346F403A207D58F9386F7FFFE
:1058FC00FD8E81EE930600206399D7008346140435
:10590C0089C69387F6FFF58F99CF094511A0E9FB5E
:10591C00B24022444101828083461404C9DE93873D
:10592C00F6FFF58FC9FB834744048546FD1793F7B3
:10593C00F70F63E0F6028347640483465404A2071E
:10594C00D58F81CB8347B4048346A404A207D58F9B
:10595C00E1F3AD67938757A50D45E308F7FA4DBF03
:10596C0011457DB7854663F4B612184D011122CC52
:10597C004AC806CE26CA4EC652C456C22A892E849E
:10598C00894763F9E50803470500B2846305F70A04
:10599C008D476306F70C8947631ED7065C5193D974
:1059AC001500AE9993D59900BE95953DAA873DE11A
:1059BC00130A4903938A1900058893F9F91FD299A0
:1059CC0093F7F40F01CC83C7090085661397440045
:1059DC00C116BD8B758FD98F93F7F70F2380F90004
:1059EC008547A301F9008327490293D59A004A857C
:1059FC00BE953535AA8719ED93FAFA1F569A0DC440
:105A0C0093D7440093F7F70F2300FA008547A301BF
:105A1C00F9008147F2406244D2444249B249224AD9
:105A2C00924A3E850561828083470A00A180BD8829
:105A3C00C19BC58FD1BF5C51A181BE95CD33AA87C7
:105A4C0071F90604930749031374E41FA29723808A
:105A5C009700C204C180A180A380970045BF5C5110
:105A6C009D81BE956D3BAA8755F50A0493074903A2
:105A7C001374C41F3E9422850131B70700F09204C1
:105A8C00B375F5009180C58D2285313141B78947B9
:105A9C003E858280797126D206D622D44AD04ECE4B
:105AAC00AA842EC6F13921E9B2452A842685093902
:105ABC00938944032A8988D81306002081454E8592
:105ACC00CD3E83D7A400636EF40003D5A400018DF2
